{
  "address": "0x5D10B62aCeB376e75fC77da632db4878c2F98343",
  "abi": [
    {
      "inputs": [],
      "stateMutability": "nonpayable",
      "type": "constructor"
    },
    {
      "anonymous": false,
      "inputs": [
        {
          "indexed": true,
          "internalType": "address",
          "name": "owner",
          "type": "address"
        },
        {
          "indexed": true,
          "internalType": "address",
          "name": "approved",
          "type": "address"
        },
        {
          "indexed": true,
          "internalType": "uint256",
          "name": "tokenId",
          "type": "uint256"
        }
      ],
      "name": "Approval",
      "type": "event"
    },
    {
      "anonymous": false,
      "inputs": [
        {
          "indexed": true,
          "internalType": "address",
          "name": "owner",
          "type": "address"
        },
        {
          "indexed": true,
          "internalType": "address",
          "name": "operator",
          "type": "address"
        },
        {
          "indexed": false,
          "internalType": "bool",
          "name": "approved",
          "type": "bool"
        }
      ],
      "name": "ApprovalForAll",
      "type": "event"
    },
    {
      "anonymous": false,
      "inputs": [
        {
          "indexed": true,
          "internalType": "address",
          "name": "to",
          "type": "address"
        },
        {
          "indexed": false,
          "internalType": "uint256",
          "name": "tokenId",
          "type": "uint256"
        },
        {
          "indexed": false,
          "internalType": "string",
          "name": "uri",
          "type": "string"
        }
      ],
      "name": "ListNFTMinted",
      "type": "event"
    },
    {
      "anonymous": false,
      "inputs": [
        {
          "indexed": true,
          "internalType": "address",
          "name": "previousOwner",
          "type": "address"
        },
        {
          "indexed": true,
          "internalType": "address",
          "name": "newOwner",
          "type": "address"
        }
      ],
      "name": "OwnershipTransferred",
      "type": "event"
    },
    {
      "anonymous": false,
      "inputs": [
        {
          "indexed": true,
          "internalType": "address",
          "name": "from",
          "type": "address"
        },
        {
          "indexed": true,
          "internalType": "address",
          "name": "to",
          "type": "address"
        },
        {
          "indexed": true,
          "internalType": "uint256",
          "name": "tokenId",
          "type": "uint256"
        }
      ],
      "name": "Transfer",
      "type": "event"
    },
    {
      "inputs": [
        {
          "internalType": "address",
          "name": "to",
          "type": "address"
        },
        {
          "internalType": "uint256",
          "name": "tokenId",
          "type": "uint256"
        }
      ],
      "name": "approve",
      "outputs": [],
      "stateMutability": "nonpayable",
      "type": "function"
    },
    {
      "inputs": [
        {
          "internalType": "address",
          "name": "owner",
          "type": "address"
        }
      ],
      "name": "balanceOf",
      "outputs": [
        {
          "internalType": "uint256",
          "name": "",
          "type": "uint256"
        }
      ],
      "stateMutability": "view",
      "type": "function"
    },
    {
      "inputs": [
        {
          "internalType": "uint256",
          "name": "tokenId",
          "type": "uint256"
        }
      ],
      "name": "getApproved",
      "outputs": [
        {
          "internalType": "address",
          "name": "",
          "type": "address"
        }
      ],
      "stateMutability": "view",
      "type": "function"
    },
    {
      "inputs": [
        {
          "internalType": "address",
          "name": "owner",
          "type": "address"
        },
        {
          "internalType": "address",
          "name": "operator",
          "type": "address"
        }
      ],
      "name": "isApprovedForAll",
      "outputs": [
        {
          "internalType": "bool",
          "name": "",
          "type": "bool"
        }
      ],
      "stateMutability": "view",
      "type": "function"
    },
    {
      "inputs": [
        {
          "internalType": "address",
          "name": "to",
          "type": "address"
        },
        {
          "internalType": "string",
          "name": "uri",
          "type": "string"
        }
      ],
      "name": "mint",
      "outputs": [],
      "stateMutability": "nonpayable",
      "type": "function"
    },
    {
      "inputs": [],
      "name": "name",
      "outputs": [
        {
          "internalType": "string",
          "name": "",
          "type": "string"
        }
      ],
      "stateMutability": "view",
      "type": "function"
    },
    {
      "inputs": [],
      "name": "owner",
      "outputs": [
        {
          "internalType": "address",
          "name": "",
          "type": "address"
        }
      ],
      "stateMutability": "view",
      "type": "function"
    },
    {
      "inputs": [
        {
          "internalType": "uint256",
          "name": "tokenId",
          "type": "uint256"
        }
      ],
      "name": "ownerOf",
      "outputs": [
        {
          "internalType": "address",
          "name": "",
          "type": "address"
        }
      ],
      "stateMutability": "view",
      "type": "function"
    },
    {
      "inputs": [],
      "name": "renounceOwnership",
      "outputs": [],
      "stateMutability": "nonpayable",
      "type": "function"
    },
    {
      "inputs": [
        {
          "internalType": "address",
          "name": "from",
          "type": "address"
        },
        {
          "internalType": "address",
          "name": "to",
          "type": "address"
        },
        {
          "internalType": "uint256",
          "name": "tokenId",
          "type": "uint256"
        }
      ],
      "name": "safeTransferFrom",
      "outputs": [],
      "stateMutability": "nonpayable",
      "type": "function"
    },
    {
      "inputs": [
        {
          "internalType": "address",
          "name": "from",
          "type": "address"
        },
        {
          "internalType": "address",
          "name": "to",
          "type": "address"
        },
        {
          "internalType": "uint256",
          "name": "tokenId",
          "type": "uint256"
        },
        {
          "internalType": "bytes",
          "name": "data",
          "type": "bytes"
        }
      ],
      "name": "safeTransferFrom",
      "outputs": [],
      "stateMutability": "nonpayable",
      "type": "function"
    },
    {
      "inputs": [
        {
          "internalType": "address",
          "name": "operator",
          "type": "address"
        },
        {
          "internalType": "bool",
          "name": "approved",
          "type": "bool"
        }
      ],
      "name": "setApprovalForAll",
      "outputs": [],
      "stateMutability": "nonpayable",
      "type": "function"
    },
    {
      "inputs": [
        {
          "internalType": "bytes4",
          "name": "interfaceId",
          "type": "bytes4"
        }
      ],
      "name": "supportsInterface",
      "outputs": [
        {
          "internalType": "bool",
          "name": "",
          "type": "bool"
        }
      ],
      "stateMutability": "view",
      "type": "function"
    },
    {
      "inputs": [],
      "name": "symbol",
      "outputs": [
        {
          "internalType": "string",
          "name": "",
          "type": "string"
        }
      ],
      "stateMutability": "view",
      "type": "function"
    },
    {
      "inputs": [
        {
          "internalType": "uint256",
          "name": "tokenId",
          "type": "uint256"
        }
      ],
      "name": "tokenURI",
      "outputs": [
        {
          "internalType": "string",
          "name": "",
          "type": "string"
        }
      ],
      "stateMutability": "view",
      "type": "function"
    },
    {
      "inputs": [
        {
          "internalType": "address",
          "name": "from",
          "type": "address"
        },
        {
          "internalType": "address",
          "name": "to",
          "type": "address"
        },
        {
          "internalType": "uint256",
          "name": "tokenId",
          "type": "uint256"
        }
      ],
      "name": "transferFrom",
      "outputs": [],
      "stateMutability": "nonpayable",
      "type": "function"
    },
    {
      "inputs": [
        {
          "internalType": "address",
          "name": "newOwner",
          "type": "address"
        }
      ],
      "name": "transferOwnership",
      "outputs": [],
      "stateMutability": "nonpayable",
      "type": "function"
    }
  ],
  "transactionHash": "0x2e3b0938401bf770d3dde4c292ef33a2913840901e355fd19df4b9841e4e7862",
  "args": [],
  "numDeployments": 1,
  "solcInputHash": "300396fbd845f669c70167433fc0c86f",
  "bytecode": "0x60806040523480156200001157600080fd5b506040518060400160405280600881526020017f4c656e734c6973740000000000000000000000000000000000000000000000008152506040518060400160405280600381526020017f4c53540000000000000000000000000000000000000000000000000000000000815250816000908051906020019062000096929190620001a6565b508060019080519060200190620000af929190620001a6565b505050620000d2620000c6620000d860201b60201c565b620000e060201b60201c565b620002bb565b600033905090565b6000600760009054906101000a900473ffffffffffffffffffffffffffffffffffffffff16905081600760006101000a81548173ffffffffffffffffffffffffffffffffffffffff021916908373ffffffffffffffffffffffffffffffffffffffff1602179055508173ffffffffffffffffffffffffffffffffffffffff168173ffffffffffffffffffffffffffffffffffffffff167f8be0079c531659141344cd1fd0a4f28419497f9722a3daafe3b4186f6b6457e060405160405180910390a35050565b828054620001b49062000285565b90600052602060002090601f016020900481019282620001d8576000855562000224565b82601f10620001f357805160ff191683800117855562000224565b8280016001018555821562000224579182015b828111156200022357825182559160200191906001019062000206565b5b50905062000233919062000237565b5090565b5b808211156200025257600081600090555060010162000238565b5090565b7f4e487b7100000000000000000000000000000000000000000000000000000000600052602260045260246000fd5b600060028204905060018216806200029e57607f821691505b60208210811415620002b557620002b462000256565b5b50919050565b612d0180620002cb6000396000f3fe608060405234801561001057600080fd5b506004361061010b5760003560e01c8063715018a6116100a2578063b88d4fde11610071578063b88d4fde146102a4578063c87b56dd146102c0578063d0def521146102f0578063e985e9c51461030c578063f2fde38b1461033c5761010b565b8063715018a6146102425780638da5cb5b1461024c57806395d89b411461026a578063a22cb465146102885761010b565b806323b872dd116100de57806323b872dd146101aa57806342842e0e146101c65780636352211e146101e257806370a08231146102125761010b565b806301ffc9a71461011057806306fdde0314610140578063081812fc1461015e578063095ea7b31461018e575b600080fd5b61012a60048036038101906101259190611ba3565b610358565b6040516101379190611beb565b60405180910390f35b61014861043a565b6040516101559190611c9f565b60405180910390f35b61017860048036038101906101739190611cf7565b6104cc565b6040516101859190611d65565b60405180910390f35b6101a860048036038101906101a39190611dac565b610512565b005b6101c460048036038101906101bf9190611dec565b61062a565b005b6101e060048036038101906101db9190611dec565b61068a565b005b6101fc60048036038101906101f79190611cf7565b6106aa565b6040516102099190611d65565b60405180910390f35b61022c60048036038101906102279190611e3f565b61075c565b6040516102399190611e7b565b60405180910390f35b61024a610814565b005b610254610828565b6040516102619190611d65565b60405180910390f35b610272610852565b60405161027f9190611c9f565b60405180910390f35b6102a2600480360381019061029d9190611ec2565b6108e4565b005b6102be60048036038101906102b99190612037565b6108fa565b005b6102da60048036038101906102d59190611cf7565b61095c565b6040516102e79190611c9f565b60405180910390f35b61030a6004803603810190610305919061215b565b61096e565b005b610326600480360381019061032191906121b7565b6109ef565b6040516103339190611beb565b60405180910390f35b61035660048036038101906103519190611e3f565b610a83565b005b60007f80ac58cd000000000000000000000000000000000000000000000000000000007bffffffffffffffffffffffffffffffffffffffffffffffffffffffff1916827bffffffffffffffffffffffffffffffffffffffffffffffffffffffff1916148061042357507f5b5e139f000000000000000000000000000000000000000000000000000000007bffffffffffffffffffffffffffffffffffffffffffffffffffffffff1916827bffffffffffffffffffffffffffffffffffffffffffffffffffffffff1916145b80610433575061043282610b07565b5b9050919050565b60606000805461044990612226565b80601f016020809104026020016040519081016040528092919081815260200182805461047590612226565b80156104c25780601f10610497576101008083540402835291602001916104c2565b820191906000526020600020905b8154815290600101906020018083116104a557829003601f168201915b5050505050905090565b60006104d782610b71565b6004600083815260200190815260200160002060009054906101000a900473ffffffffffffffffffffffffffffffffffffffff169050919050565b600061051d826106aa565b90508073ffffffffffffffffffffffffffffffffffffffff168373ffffffffffffffffffffffffffffffffffffffff16141561058e576040517f08c379a0000000000000000000000000000000000000000000000000000000008152600401610585906122ca565b60405180910390fd5b8073ffffffffffffffffffffffffffffffffffffffff166105ad610bbc565b73ffffffffffffffffffffffffffffffffffffffff1614806105dc57506105db816105d6610bbc565b6109ef565b5b61061b576040517f08c379a00000000000000000000000000000000000000000000000000000000081526004016106129061235c565b60405180910390fd5b6106258383610bc4565b505050565b61063b610635610bbc565b82610c7d565b61067a576040517f08c379a0000000000000000000000000000000000000000000000000000000008152600401610671906123ee565b60405180910390fd5b610685838383610d12565b505050565b6106a5838383604051806020016040528060008152506108fa565b505050565b6000806002600084815260200190815260200160002060009054906101000a900473ffffffffffffffffffffffffffffffffffffffff169050600073ffffffffffffffffffffffffffffffffffffffff168173ffffffffffffffffffffffffffffffffffffffff161415610753576040517f08c379a000000000000000000000000000000000000000000000000000000000815260040161074a9061245a565b60405180910390fd5b80915050919050565b60008073ffffffffffffffffffffffffffffffffffffffff168273ffffffffffffffffffffffffffffffffffffffff1614156107cd576040517f08c379a00000000000000000000000000000000000000000000000000000000081526004016107c4906124ec565b60405180910390fd5b600360008373ffffffffffffffffffffffffffffffffffffffff1673ffffffffffffffffffffffffffffffffffffffff168152602001908152602001600020549050919050565b61081c610f79565b6108266000610ff7565b565b6000600760009054906101000a900473ffffffffffffffffffffffffffffffffffffffff16905090565b60606001805461086190612226565b80601f016020809104026020016040519081016040528092919081815260200182805461088d90612226565b80156108da5780601f106108af576101008083540402835291602001916108da565b820191906000526020600020905b8154815290600101906020018083116108bd57829003601f168201915b5050505050905090565b6108f66108ef610bbc565b83836110bd565b5050565b61090b610905610bbc565b83610c7d565b61094a576040517f08c379a0000000000000000000000000000000000000000000000000000000008152600401610941906123ee565b60405180910390fd5b6109568484848461122a565b50505050565b606061096782611286565b9050919050565b600061097a6008611399565b905061098660086113a7565b61099083826113bd565b61099a81836113db565b8273ffffffffffffffffffffffffffffffffffffffff167fc5a4f3e456c8aaf7853f16a4e520ce7b0baa698956a63dd091e5bb919f46960682846040516109e292919061250c565b60405180910390a2505050565b6000600560008473ffffffffffffffffffffffffffffffffffffffff1673ffffffffffffffffffffffffffffffffffffffff16815260200190815260200160002060008373ffffffffffffffffffffffffffffffffffffffff1673ffffffffffffffffffffffffffffffffffffffff16815260200190815260200160002060009054906101000a900460ff16905092915050565b610a8b610f79565b600073ffffffffffffffffffffffffffffffffffffffff168173ffffffffffffffffffffffffffffffffffffffff161415610afb576040517f08c379a0000000000000000000000000000000000000000000000000000000008152600401610af2906125ae565b60405180910390fd5b610b0481610ff7565b50565b60007f01ffc9a7000000000000000000000000000000000000000000000000000000007bffffffffffffffffffffffffffffffffffffffffffffffffffffffff1916827bffffffffffffffffffffffffffffffffffffffffffffffffffffffff1916149050919050565b610b7a8161144f565b610bb9576040517f08c379a0000000000000000000000000000000000000000000000000000000008152600401610bb09061245a565b60405180910390fd5b50565b600033905090565b816004600083815260200190815260200160002060006101000a81548173ffffffffffffffffffffffffffffffffffffffff021916908373ffffffffffffffffffffffffffffffffffffffff160217905550808273ffffffffffffffffffffffffffffffffffffffff16610c37836106aa565b73ffffffffffffffffffffffffffffffffffffffff167f8c5be1e5ebec7d5bd14f71427d1e84f3dd0314c0f7b2291e5b200ac8c7c3b92560405160405180910390a45050565b600080610c89836106aa565b90508073ffffffffffffffffffffffffffffffffffffffff168473ffffffffffffffffffffffffffffffffffffffff161480610ccb5750610cca81856109ef565b5b80610d0957508373ffffffffffffffffffffffffffffffffffffffff16610cf1846104cc565b73ffffffffffffffffffffffffffffffffffffffff16145b91505092915050565b8273ffffffffffffffffffffffffffffffffffffffff16610d32826106aa565b73ffffffffffffffffffffffffffffffffffffffff1614610d88576040517f08c379a0000000000000000000000000000000000000000000000000000000008152600401610d7f90612640565b60405180910390fd5b600073ffffffffffffffffffffffffffffffffffffffff168273ffffffffffffffffffffffffffffffffffffffff161415610df8576040517f08c379a0000000000000000000000000000000000000000000000000000000008152600401610def906126d2565b60405180910390fd5b610e038383836114bb565b610e0e600082610bc4565b6001600360008573ffffffffffffffffffffffffffffffffffffffff1673ffffffffffffffffffffffffffffffffffffffff1681526020019081526020016000206000828254610e5e9190612721565b925050819055506001600360008473ffffffffffffffffffffffffffffffffffffffff1673ffffffffffffffffffffffffffffffffffffffff1681526020019081526020016000206000828254610eb59190612755565b92505081905550816002600083815260200190815260200160002060006101000a81548173ffffffffffffffffffffffffffffffffffffffff021916908373ffffffffffffffffffffffffffffffffffffffff160217905550808273ffffffffffffffffffffffffffffffffffffffff168473ffffffffffffffffffffffffffffffffffffffff167fddf252ad1be2c89b69c2b068fc378daa952ba7f163c4a11628f55a4df523b3ef60405160405180910390a4610f748383836114c0565b505050565b610f81610bbc565b73ffffffffffffffffffffffffffffffffffffffff16610f9f610828565b73ffffffffffffffffffffffffffffffffffffffff1614610ff5576040517f08c379a0000000000000000000000000000000000000000000000000000000008152600401610fec906127f7565b60405180910390fd5b565b6000600760009054906101000a900473ffffffffffffffffffffffffffffffffffffffff16905081600760006101000a81548173ffffffffffffffffffffffffffffffffffffffff021916908373ffffffffffffffffffffffffffffffffffffffff1602179055508173ffffffffffffffffffffffffffffffffffffffff168173ffffffffffffffffffffffffffffffffffffffff167f8be0079c531659141344cd1fd0a4f28419497f9722a3daafe3b4186f6b6457e060405160405180910390a35050565b8173ffffffffffffffffffffffffffffffffffffffff168373ffffffffffffffffffffffffffffffffffffffff16141561112c576040517f08c379a000000000000000000000000000000000000000000000000000000000815260040161112390612863565b60405180910390fd5b80600560008573ffffffffffffffffffffffffffffffffffffffff1673ffffffffffffffffffffffffffffffffffffffff16815260200190815260200160002060008473ffffffffffffffffffffffffffffffffffffffff1673ffffffffffffffffffffffffffffffffffffffff16815260200190815260200160002060006101000a81548160ff0219169083151502179055508173ffffffffffffffffffffffffffffffffffffffff168373ffffffffffffffffffffffffffffffffffffffff167f17307eab39ab6107e8899845ad3d59bd9653f200f220920489ca2b5937696c318360405161121d9190611beb565b60405180910390a3505050565b611235848484610d12565b611241848484846114c5565b611280576040517f08c379a0000000000000000000000000000000000000000000000000000000008152600401611277906128f5565b60405180910390fd5b50505050565b606061129182610b71565b60006006600084815260200190815260200160002080546112b190612226565b80601f01602080910402602001604051908101604052809291908181526020018280546112dd90612226565b801561132a5780601f106112ff5761010080835404028352916020019161132a565b820191906000526020600020905b81548152906001019060200180831161130d57829003601f168201915b50505050509050600061133b61165c565b9050600081511415611351578192505050611394565b60008251111561138657808260405160200161136e929190612951565b60405160208183030381529060405292505050611394565b61138f84611673565b925050505b919050565b600081600001549050919050565b6001816000016000828254019250508190555050565b6113d78282604051806020016040528060008152506116db565b5050565b6113e48261144f565b611423576040517f08c379a000000000000000000000000000000000000000000000000000000000815260040161141a906129e7565b60405180910390fd5b8060066000848152602001908152602001600020908051906020019061144a929190611a94565b505050565b60008073ffffffffffffffffffffffffffffffffffffffff166002600084815260200190815260200160002060009054906101000a900473ffffffffffffffffffffffffffffffffffffffff1673ffffffffffffffffffffffffffffffffffffffff1614159050919050565b505050565b505050565b60006114e68473ffffffffffffffffffffffffffffffffffffffff16611736565b1561164f578373ffffffffffffffffffffffffffffffffffffffff1663150b7a0261150f610bbc565b8786866040518563ffffffff1660e01b81526004016115319493929190612a5c565b602060405180830381600087803b15801561154b57600080fd5b505af192505050801561157c57506040513d601f19601f820116820180604052508101906115799190612abd565b60015b6115ff573d80600081146115ac576040519150601f19603f3d011682016040523d82523d6000602084013e6115b1565b606091505b506000815114156115f7576040517f08c379a00000000000000000000000000000000000000000000000000000000081526004016115ee906128f5565b60405180910390fd5b805181602001fd5b63150b7a0260e01b7bffffffffffffffffffffffffffffffffffffffffffffffffffffffff1916817bffffffffffffffffffffffffffffffffffffffffffffffffffffffff191614915050611654565b600190505b949350505050565b606060405180602001604052806000815250905090565b606061167e82610b71565b600061168861165c565b905060008151116116a857604051806020016040528060008152506116d3565b806116b284611759565b6040516020016116c3929190612951565b6040516020818303038152906040525b915050919050565b6116e583836118ba565b6116f260008484846114c5565b611731576040517f08c379a0000000000000000000000000000000000000000000000000000000008152600401611728906128f5565b60405180910390fd5b505050565b6000808273ffffffffffffffffffffffffffffffffffffffff163b119050919050565b606060008214156117a1576040518060400160405280600181526020017f300000000000000000000000000000000000000000000000000000000000000081525090506118b5565b600082905060005b600082146117d35780806117bc90612aea565b915050600a826117cc9190612b62565b91506117a9565b60008167ffffffffffffffff8111156117ef576117ee611f0c565b5b6040519080825280601f01601f1916602001820160405280156118215781602001600182028036833780820191505090505b5090505b600085146118ae5760018261183a9190612721565b9150600a856118499190612b93565b60306118559190612755565b60f81b81838151811061186b5761186a612bc4565b5b60200101907effffffffffffffffffffffffffffffffffffffffffffffffffffffffffffff1916908160001a905350600a856118a79190612b62565b9450611825565b8093505050505b919050565b600073ffffffffffffffffffffffffffffffffffffffff168273ffffffffffffffffffffffffffffffffffffffff16141561192a576040517f08c379a000000000000000000000000000000000000000000000000000000000815260040161192190612c3f565b60405180910390fd5b6119338161144f565b15611973576040517f08c379a000000000000000000000000000000000000000000000000000000000815260040161196a90612cab565b60405180910390fd5b61197f600083836114bb565b6001600360008473ffffffffffffffffffffffffffffffffffffffff1673ffffffffffffffffffffffffffffffffffffffff16815260200190815260200160002060008282546119cf9190612755565b92505081905550816002600083815260200190815260200160002060006101000a81548173ffffffffffffffffffffffffffffffffffffffff021916908373ffffffffffffffffffffffffffffffffffffffff160217905550808273ffffffffffffffffffffffffffffffffffffffff16600073ffffffffffffffffffffffffffffffffffffffff167fddf252ad1be2c89b69c2b068fc378daa952ba7f163c4a11628f55a4df523b3ef60405160405180910390a4611a90600083836114c0565b5050565b828054611aa090612226565b90600052602060002090601f016020900481019282611ac25760008555611b09565b82601f10611adb57805160ff1916838001178555611b09565b82800160010185558215611b09579182015b82811115611b08578251825591602001919060010190611aed565b5b509050611b169190611b1a565b5090565b5b80821115611b33576000816000905550600101611b1b565b5090565b6000604051905090565b600080fd5b600080fd5b60007fffffffff0000000000000000000000000000000000000000000000000000000082169050919050565b611b8081611b4b565b8114611b8b57600080fd5b50565b600081359050611b9d81611b77565b92915050565b600060208284031215611bb957611bb8611b41565b5b6000611bc784828501611b8e565b91505092915050565b60008115159050919050565b611be581611bd0565b82525050565b6000602082019050611c006000830184611bdc565b92915050565b600081519050919050565b600082825260208201905092915050565b60005b83811015611c40578082015181840152602081019050611c25565b83811115611c4f576000848401525b50505050565b6000601f19601f8301169050919050565b6000611c7182611c06565b611c7b8185611c11565b9350611c8b818560208601611c22565b611c9481611c55565b840191505092915050565b60006020820190508181036000830152611cb98184611c66565b905092915050565b6000819050919050565b611cd481611cc1565b8114611cdf57600080fd5b50565b600081359050611cf181611ccb565b92915050565b600060208284031215611d0d57611d0c611b41565b5b6000611d1b84828501611ce2565b91505092915050565b600073ffffffffffffffffffffffffffffffffffffffff82169050919050565b6000611d4f82611d24565b9050919050565b611d5f81611d44565b82525050565b6000602082019050611d7a6000830184611d56565b92915050565b611d8981611d44565b8114611d9457600080fd5b50565b600081359050611da681611d80565b92915050565b60008060408385031215611dc357611dc2611b41565b5b6000611dd185828601611d97565b9250506020611de285828601611ce2565b9150509250929050565b600080600060608486031215611e0557611e04611b41565b5b6000611e1386828701611d97565b9350506020611e2486828701611d97565b9250506040611e3586828701611ce2565b9150509250925092565b600060208284031215611e5557611e54611b41565b5b6000611e6384828501611d97565b91505092915050565b611e7581611cc1565b82525050565b6000602082019050611e906000830184611e6c565b92915050565b611e9f81611bd0565b8114611eaa57600080fd5b50565b600081359050611ebc81611e96565b92915050565b60008060408385031215611ed957611ed8611b41565b5b6000611ee785828601611d97565b9250506020611ef885828601611ead565b9150509250929050565b600080fd5b600080fd5b7f4e487b7100000000000000000000000000000000000000000000000000000000600052604160045260246000fd5b611f4482611c55565b810181811067ffffffffffffffff82111715611f6357611f62611f0c565b5b80604052505050565b6000611f76611b37565b9050611f828282611f3b565b919050565b600067ffffffffffffffff821115611fa257611fa1611f0c565b5b611fab82611c55565b9050602081019050919050565b82818337600083830152505050565b6000611fda611fd584611f87565b611f6c565b905082815260208101848484011115611ff657611ff5611f07565b5b612001848285611fb8565b509392505050565b600082601f83011261201e5761201d611f02565b5b813561202e848260208601611fc7565b91505092915050565b6000806000806080858703121561205157612050611b41565b5b600061205f87828801611d97565b945050602061207087828801611d97565b935050604061208187828801611ce2565b925050606085013567ffffffffffffffff8111156120a2576120a1611b46565b5b6120ae87828801612009565b91505092959194509250565b600067ffffffffffffffff8211156120d5576120d4611f0c565b5b6120de82611c55565b9050602081019050919050565b60006120fe6120f9846120ba565b611f6c565b90508281526020810184848401111561211a57612119611f07565b5b612125848285611fb8565b509392505050565b600082601f83011261214257612141611f02565b5b81356121528482602086016120eb565b91505092915050565b6000806040838503121561217257612171611b41565b5b600061218085828601611d97565b925050602083013567ffffffffffffffff8111156121a1576121a0611b46565b5b6121ad8582860161212d565b9150509250929050565b600080604083850312156121ce576121cd611b41565b5b60006121dc85828601611d97565b92505060206121ed85828601611d97565b9150509250929050565b7f4e487b7100000000000000000000000000000000000000000000000000000000600052602260045260246000fd5b6000600282049050600182168061223e57607f821691505b60208210811415612252576122516121f7565b5b50919050565b7f4552433732313a20617070726f76616c20746f2063757272656e74206f776e6560008201527f7200000000000000000000000000000000000000000000000000000000000000602082015250565b60006122b4602183611c11565b91506122bf82612258565b604082019050919050565b600060208201905081810360008301526122e3816122a7565b9050919050565b7f4552433732313a20617070726f76652063616c6c6572206973206e6f7420746f60008201527f6b656e206f776e6572206e6f7220617070726f76656420666f7220616c6c0000602082015250565b6000612346603e83611c11565b9150612351826122ea565b604082019050919050565b6000602082019050818103600083015261237581612339565b9050919050565b7f4552433732313a2063616c6c6572206973206e6f7420746f6b656e206f776e6560008201527f72206e6f7220617070726f766564000000000000000000000000000000000000602082015250565b60006123d8602e83611c11565b91506123e38261237c565b604082019050919050565b60006020820190508181036000830152612407816123cb565b9050919050565b7f4552433732313a20696e76616c696420746f6b656e2049440000000000000000600082015250565b6000612444601883611c11565b915061244f8261240e565b602082019050919050565b6000602082019050818103600083015261247381612437565b9050919050565b7f4552433732313a2061646472657373207a65726f206973206e6f74206120766160008201527f6c6964206f776e65720000000000000000000000000000000000000000000000602082015250565b60006124d6602983611c11565b91506124e18261247a565b604082019050919050565b60006020820190508181036000830152612505816124c9565b9050919050565b60006040820190506125216000830185611e6c565b81810360208301526125338184611c66565b90509392505050565b7f4f776e61626c653a206e6577206f776e657220697320746865207a65726f206160008201527f6464726573730000000000000000000000000000000000000000000000000000602082015250565b6000612598602683611c11565b91506125a38261253c565b604082019050919050565b600060208201905081810360008301526125c78161258b565b9050919050565b7f4552433732313a207472616e736665722066726f6d20696e636f72726563742060008201527f6f776e6572000000000000000000000000000000000000000000000000000000602082015250565b600061262a602583611c11565b9150612635826125ce565b604082019050919050565b600060208201905081810360008301526126598161261d565b9050919050565b7f4552433732313a207472616e7366657220746f20746865207a65726f2061646460008201527f7265737300000000000000000000000000000000000000000000000000000000602082015250565b60006126bc602483611c11565b91506126c782612660565b604082019050919050565b600060208201905081810360008301526126eb816126af565b9050919050565b7f4e487b7100000000000000000000000000000000000000000000000000000000600052601160045260246000fd5b600061272c82611cc1565b915061273783611cc1565b92508282101561274a576127496126f2565b5b828203905092915050565b600061276082611cc1565b915061276b83611cc1565b9250827fffffffffffffffffffffffffffffffffffffffffffffffffffffffffffffffff038211156127a05761279f6126f2565b5b828201905092915050565b7f4f776e61626c653a2063616c6c6572206973206e6f7420746865206f776e6572600082015250565b60006127e1602083611c11565b91506127ec826127ab565b602082019050919050565b60006020820190508181036000830152612810816127d4565b9050919050565b7f4552433732313a20617070726f766520746f2063616c6c657200000000000000600082015250565b600061284d601983611c11565b915061285882612817565b602082019050919050565b6000602082019050818103600083015261287c81612840565b9050919050565b7f4552433732313a207472616e7366657220746f206e6f6e20455243373231526560008201527f63656976657220696d706c656d656e7465720000000000000000000000000000602082015250565b60006128df603283611c11565b91506128ea82612883565b604082019050919050565b6000602082019050818103600083015261290e816128d2565b9050919050565b600081905092915050565b600061292b82611c06565b6129358185612915565b9350612945818560208601611c22565b80840191505092915050565b600061295d8285612920565b91506129698284612920565b91508190509392505050565b7f45524337323155524953746f726167653a2055524920736574206f66206e6f6e60008201527f6578697374656e7420746f6b656e000000000000000000000000000000000000602082015250565b60006129d1602e83611c11565b91506129dc82612975565b604082019050919050565b60006020820190508181036000830152612a00816129c4565b9050919050565b600081519050919050565b600082825260208201905092915050565b6000612a2e82612a07565b612a388185612a12565b9350612a48818560208601611c22565b612a5181611c55565b840191505092915050565b6000608082019050612a716000830187611d56565b612a7e6020830186611d56565b612a8b6040830185611e6c565b8181036060830152612a9d8184612a23565b905095945050505050565b600081519050612ab781611b77565b92915050565b600060208284031215612ad357612ad2611b41565b5b6000612ae184828501612aa8565b91505092915050565b6000612af582611cc1565b91507fffffffffffffffffffffffffffffffffffffffffffffffffffffffffffffffff821415612b2857612b276126f2565b5b600182019050919050565b7f4e487b7100000000000000000000000000000000000000000000000000000000600052601260045260246000fd5b6000612b6d82611cc1565b9150612b7883611cc1565b925082612b8857612b87612b33565b5b828204905092915050565b6000612b9e82611cc1565b9150612ba983611cc1565b925082612bb957612bb8612b33565b5b828206905092915050565b7f4e487b7100000000000000000000000000000000000000000000000000000000600052603260045260246000fd5b7f4552433732313a206d696e7420746f20746865207a65726f2061646472657373600082015250565b6000612c29602083611c11565b9150612c3482612bf3565b602082019050919050565b60006020820190508181036000830152612c5881612c1c565b9050919050565b7f4552433732313a20746f6b656e20616c7265616479206d696e74656400000000600082015250565b6000612c95601c83611c11565b9150612ca082612c5f565b602082019050919050565b60006020820190508181036000830152612cc481612c88565b905091905056fea2646970667358221220ce05a3c98dac0b90d8068717c7b957e4f926b9442055d9e362dafff78af09e4a64736f6c63430008090033",
  "devdoc": {
    "kind": "dev",
    "methods": {
      "approve(address,uint256)": {
        "details": "See {IERC721-approve}."
      },
      "balanceOf(address)": {
        "details": "See {IERC721-balanceOf}."
      },
      "getApproved(uint256)": {
        "details": "See {IERC721-getApproved}."
      },
      "isApprovedForAll(address,address)": {
        "details": "See {IERC721-isApprovedForAll}."
      },
      "name()": {
        "details": "See {IERC721Metadata-name}."
      },
      "owner()": {
        "details": "Returns the address of the current owner."
      },
      "ownerOf(uint256)": {
        "details": "See {IERC721-ownerOf}."
      },
      "renounceOwnership()": {
        "details": "Leaves the contract without owner. It will not be possible to call `onlyOwner` functions anymore. Can only be called by the current owner. NOTE: Renouncing ownership will leave the contract without an owner, thereby removing any functionality that is only available to the owner."
      },
      "safeTransferFrom(address,address,uint256)": {
        "details": "See {IERC721-safeTransferFrom}."
      },
      "safeTransferFrom(address,address,uint256,bytes)": {
        "details": "See {IERC721-safeTransferFrom}."
      },
      "setApprovalForAll(address,bool)": {
        "details": "See {IERC721-setApprovalForAll}."
      },
      "supportsInterface(bytes4)": {
        "details": "See {IERC165-supportsInterface}."
      },
      "symbol()": {
        "details": "See {IERC721Metadata-symbol}."
      },
      "transferFrom(address,address,uint256)": {
        "details": "See {IERC721-transferFrom}."
      },
      "transferOwnership(address)": {
        "details": "Transfers ownership of the contract to a new account (`newOwner`). Can only be called by the current owner."
      }
    },
    "version": 1
  },
  "userdoc": {
    "kind": "user",
    "methods": {},
    "version": 1
  },
  "storageLayout": {
    "storage": [
      {
        "astId": 138,
        "contract": "contracts/ListNFT.sol:ListNFT",
        "label": "_name",
        "offset": 0,
        "slot": "0",
        "type": "t_string_storage"
      },
      {
        "astId": 140,
        "contract": "contracts/ListNFT.sol:ListNFT",
        "label": "_symbol",
        "offset": 0,
        "slot": "1",
        "type": "t_string_storage"
      },
      {
        "astId": 144,
        "contract": "contracts/ListNFT.sol:ListNFT",
        "label": "_owners",
        "offset": 0,
        "slot": "2",
        "type": "t_mapping(t_uint256,t_address)"
      },
      {
        "astId": 148,
        "contract": "contracts/ListNFT.sol:ListNFT",
        "label": "_balances",
        "offset": 0,
        "slot": "3",
        "type": "t_mapping(t_address,t_uint256)"
      },
      {
        "astId": 152,
        "contract": "contracts/ListNFT.sol:ListNFT",
        "label": "_tokenApprovals",
        "offset": 0,
        "slot": "4",
        "type": "t_mapping(t_uint256,t_address)"
      },
      {
        "astId": 158,
        "contract": "contracts/ListNFT.sol:ListNFT",
        "label": "_operatorApprovals",
        "offset": 0,
        "slot": "5",
        "type": "t_mapping(t_address,t_mapping(t_address,t_bool))"
      },
      {
        "astId": 1126,
        "contract": "contracts/ListNFT.sol:ListNFT",
        "label": "_tokenURIs",
        "offset": 0,
        "slot": "6",
        "type": "t_mapping(t_uint256,t_string_storage)"
      },
      {
        "astId": 7,
        "contract": "contracts/ListNFT.sol:ListNFT",
        "label": "_owner",
        "offset": 0,
        "slot": "7",
        "type": "t_address"
      },
      {
        "astId": 1937,
        "contract": "contracts/ListNFT.sol:ListNFT",
        "label": "_tokenIdCounter",
        "offset": 0,
        "slot": "8",
        "type": "t_struct(Counter)1588_storage"
      }
    ],
    "types": {
      "t_address": {
        "encoding": "inplace",
        "label": "address",
        "numberOfBytes": "20"
      },
      "t_bool": {
        "encoding": "inplace",
        "label": "bool",
        "numberOfBytes": "1"
      },
      "t_mapping(t_address,t_bool)": {
        "encoding": "mapping",
        "key": "t_address",
        "label": "mapping(address => bool)",
        "numberOfBytes": "32",
        "value": "t_bool"
      },
      "t_mapping(t_address,t_mapping(t_address,t_bool))": {
        "encoding": "mapping",
        "key": "t_address",
        "label": "mapping(address => mapping(address => bool))",
        "numberOfBytes": "32",
        "value": "t_mapping(t_address,t_bool)"
      },
      "t_mapping(t_address,t_uint256)": {
        "encoding": "mapping",
        "key": "t_address",
        "label": "mapping(address => uint256)",
        "numberOfBytes": "32",
        "value": "t_uint256"
      },
      "t_mapping(t_uint256,t_address)": {
        "encoding": "mapping",
        "key": "t_uint256",
        "label": "mapping(uint256 => address)",
        "numberOfBytes": "32",
        "value": "t_address"
      },
      "t_mapping(t_uint256,t_string_storage)": {
        "encoding": "mapping",
        "key": "t_uint256",
        "label": "mapping(uint256 => string)",
        "numberOfBytes": "32",
        "value": "t_string_storage"
      },
      "t_string_storage": {
        "encoding": "bytes",
        "label": "string",
        "numberOfBytes": "32"
      },
      "t_struct(Counter)1588_storage": {
        "encoding": "inplace",
        "label": "struct Counters.Counter",
        "members": [
          {
            "astId": 1587,
            "contract": "contracts/ListNFT.sol:ListNFT",
            "label": "_value",
            "offset": 0,
            "slot": "0",
            "type": "t_uint256"
          }
        ],
        "numberOfBytes": "32"
      },
      "t_uint256": {
        "encoding": "inplace",
        "label": "uint256",
        "numberOfBytes": "32"
      }
    }
  }
}